:020000040800F2
:1000000008090020A1010008BF2E00082B2A0008C3
:10001000BD2E0008DD0D0008E936000800000000D4
:10002000000000000000000000000000C32E0008D7
:10003000B50E000800000000C12E0008C52E000803
:10004000BB010008BB010008BB010008BB010008A0
:10005000BB010008BB010008BB010008BB01000890
:10006000B70E0008BB010008BB010008BB01000877
:10007000BB010008BB010008BB010008BB01000870
:10008000E10D0008BB010008BB010008BB0100082E
:10009000BB010008BB010008BB010008BB01000850
:1000A000BB010008BB010008BB010008BB01000840
:1000B000BB010008BB010008712F0008BB0100084C
:1000C000BB010008BB010008BB010008BB01000820
:1000D000BB010008C5360008D1360008BB01000886
:1000E000BB010008BB010008BB010008BB01000800
:1000F000BB010008BB010008BB010008ED0D0008B2
:10010000BB010008BB0100087D2F0008BB010008EF
:10011000BB01000871320008BB010008892F0008EC
:10012000BB010008F90D0008050E0008BB0100081E
:10013000BB010008BB010008BB010008BB010008AF
:10014000BB010008BB010008BB010008BB0100089F
:10015000BB010008BB010008BB010008DD36000838
:10016000BB010008BB010008BB010008BB0100087F
:10017000BB010008BB010008BB0100080000000033
:10018000BB010008BB010008DFF810D000F0F2FB53
:100190000048004765440008AFF3008008090020CC
:1001A0000648804706480047FEE7FEE7FEE7FEE711
:1001B000FEE7FEE7FEE7FEE7FEE7FEE7612F000849
:1001C000890100082DE9F05F0546002092469B4614
:1001D00088460646814640241BE02846414647465D
:1001E000224600F0BDF953465A46C01A914110D339
:1001F00011461846224600F0A4F92D1A67EB0108B3
:100200004F4622460120002100F09BF917EB000920
:100210004E41201EA4F10104DFDC484631462A4647
:100220004346BDE8F09F40EA01039B0703D009E085
:1002300008C9121F08C0042AFAD203E011F8013BD2
:1002400000F8013B521EF9D27047D2B201E000F82B
:10025000012B491EFBD270470022F6E710B513466A
:100260000A4604461946FFF7F0FF204610BD10B5B8
:10027000002200E0521C835C8C5CA34201D1002B65
:10028000F8D1D8B2E1B2401A10BD00000FB400B5E9
:100290008DB010A909900B9000914FF0FF300A909B
:1002A00000200C9005480690054807906A4609A86A
:1002B0000F9900F079F90DB05DF814FBC505000841
:1002C000E30500082DE9FF5F1D464FF0FF3BD5E930
:1002D000014691465F464FF00008A9697F1C0198CE
:1002E0008847296A824688470028F6D1BAF1FF3F3D
:1002F0000CD024F4C064002E19DD600614D5BAF1C8
:100300002B0F09D0BAF12D0F0ED103E0584604B0DF
:10031000BDE8F09F44F48064A9697F1C0198884778
:10032000761E8246002E02DDBAF1300F03D0B9F1FD
:10033000000F26D032E0A969761E44F400747F1CB9
:10034000019888478246002E05DDBAF1780F06D065
:10035000BAF1580F03D0B9F1000F10D01EE0B9F177
:10036000000F02D0B9F1100F18D1A969761E24F43C
:1003700000747F1C019888478246102002E0082004
:1003800000E00A20814609E008FB0908A969761EF9
:1003900044F400747F1C019888478246002E05DDD6
:1003A0004946504600F0ECF80028EDDAE96901987A
:1003B0008847A00502D46FF00100A8E7E00725D127
:1003C000600613D5600502D5C8F1000000E0404684
:1003D00029680A1D2A600968220501D5087015E000
:1003E000220701D5088011E008600FE02868011D90
:1003F00029600068210502D580F8008006E0210709
:1004000002D5A0F8008001E0C0F8008038467EE701
:100410002DE9FF5FD2E901A74FF0000891699946E5
:100420001446DDF838B0464601988847054659EA33
:100430000B0005D009E0A169761C019888470546A4
:10044000216A284688470028F5D1681C03D05FEA56
:10045000CA7005D015E04FF0FF3004B0BDE8F09F42
:100460002068011D2160D0F800800AE05FEACA70B0
:1004700001D108F8015BA169761C7F1E01988847AD
:100480000546002F1ADD681C18D0B9F1000F0DD0F9
:10049000E81705EBD060421120F01F0059F8221038
:1004A0002A1A012090400142E0D107E0BBF1000F81
:1004B000DCD1216A284688470028D7D0E169019815
:1004C0008847BBF1000F07D1002E05DD5FEACA7037
:1004D00002D1002188F80010A068B84203DDBBF10A
:1004E000000F03D017B16FF00100B6E73046B4E754
:1004F00000F0004230F000400AD0C10D01F56071FB
:10050000C0F3160042EA0151C20840071143704788
:1005100000200146704730B50B46014600202022DE
:10052000012409E021FA02F59D4205D303FA02F500
:10053000491B04FA02F52844151EA2F10102F1DC60
:1005400030BD202A04DB203A00FA02F10020704777
:100550009140C2F1200320FA03F319439040704701
:10056000202A04DB203A21FA02F00021704721FA08
:1005700002F3D040C2F1200291400843194670476F
:100580003A2800D2303820F02002412A01D3A2F1CB
:100590003700884201D34FF0FF30704702681144A2
:1005A0001378016018467047D160044951610449CD
:1005B000116200211161114600F006BA9D05000884
:1005C000BD090008426842B1016811F8013B23B13E
:1005D000521EC0E90012184670470121C160881EF2
:1005E000704742685AB1C368016843B983688B4257
:1005F00005D0491E521CC0E90012002070474FF080
:10060000FF3070472DE9FE4F804681EA0300C00F9E
:100610000C46009021F0004123F00045B8EB0200A9
:10062000A94105D24046214690461C460B4602464B
:1006300023F00040104347D0270DC7F30A00C3F34F
:100640000A510290401A019040286BDAC3F313005C
:1006500040F4801B0098924620B10023D2EB030A9D
:1006600063EB0B0B01985946C0F140025046FFF76F
:1006700068FF06460D4650465946019A00F08CF92F
:1006800010EB08006141002487EA115284EAE77305
:100690001A4340D0009A62B3019A012A4FEA0752E6
:1006A00015DC001B61EB02014FF0004202EA075229
:1006B000CDE90042001C41F5801132462B4600F086
:1006C0002AFB03B0BDE8F08F40462146F9E7001B46
:1006D00061EB0201001C41F5801300185B412018FA
:1006E000A2F5001747EB030140EAD570B6196D413A
:1006F00011E06D084FEA360645EAC0754FEA075229
:10070000001B61EB0201001C41F5801149084FEA12
:1007100030000019514132462B4603B0BDE8F04F7E
:1007200000F0EABA0098012240000023D0EB020258
:1007300063EBE073009821464FEAE074B8EB0000E9
:1007400061EB0401E9E783F000435BE781F00041DE
:1007500058E72DE9FE4F81EA030404F0004421F03C
:10076000004100944FF0000B23F0004350EA0104D5
:100770005ED052EA03045BD0C3F30A54C1F30A55B6
:100780002C44A4F2F3340194A0FB0254C1F31301EE
:1007900041F48011C3F3130343F4801301FB0244BB
:1007A00000FB034E840A970A44EA815447EA8357C0
:1007B000A4FB076802958D0A05FB07854FEA932C79
:1007C00004FB0C542705029D4FEA065847EA1637EA
:1007D000B5EB08056EEB070C870E920E47EA811702
:1007E00042EA8312A7FB0201B6EB0B0164EB0004A3
:1007F0002B0D43EA0C335E1844EB1C50DA4651468D
:10080000E7FB0201C5F313044FEA0B3343EA145329
:100810004FEA0432019C43EA0603A4F10C0402945B
:10082000009CCDE900B400F076FA03B0BDE8F08F8B
:1008300000200146F9E72DE9F04D81EA030404F0B8
:10084000004B21F0004514464FF0000A23F0004110
:1008500050EA050220D054EA01021DD0C5F30A5720
:100860000246C5F31303C1F31300C1F30A5640F463
:10087000801543F48013A7EB0608101BD64608F238
:10088000FD3873EB050002D308F1010801E092186E
:100890005B41B8F1000F03DA00200146BDE8F08D9E
:1008A00000204FF48011064684460EE0171B73EBC0
:1008B000050705D3121B63EB050306434CEA010C45
:1008C00049084FEA300092185B4150EA0107EDD128
:1008D00052EA030012D082EA040083EA05010843C9
:1008E00005D0101BAB4106D20122002306E00022F6
:1008F0004FF0004302E06FF0010253101AEB0600C4
:100900004CEB085110EB0A0041EB0B01BDE8F04D38
:1009100000F0F2B9C1F30A52C1F3130140F2FF3300
:1009200041F480119A4202DA00200146704740F2F9
:1009300033439A42A2F2334202DC5242FFF710BE26
:10094000FFF7FFBD30B5041E71F1000404DB4FF06A
:100950000044404264EB0101141E73F1000405DB06
:100960001C464FF00043524263EB0403994208BF18
:10097000904230BD064C074D06E0E06840F00103B0
:1009800094E8070098471034AC42F6D3FFF700FC18
:100990006847000888470008202A06DBCB17203A62
:1009A00041FA02F043EAE07306E041FA02F3D04074
:1009B000C2F120029140084319467047C0B24FF47B
:1009C000F05100F0F7B900002DE9F34F8BB04FF074
:1009D000000801F10C000C464FF0010B46460DF1EA
:1009E000080A01906269012101989047051E2DD0E7
:1009F000252D2CD0216A8847C0B162690121019858
:100A00009047216A88470028F7D1411E6269019802
:100A1000904700E0761CA1690B988847216A8847B7
:100A20000028F7D1E1690B988847DBE7A1690B98AB
:100A300088470746A84201D1761CD3E7E1690B98A5
:100A400088477F1C02D1B8F1000F6FD047E1002723
:100A500062693D463946019890472A2804D1626967
:100A60000121019890470125DFF8889262690121F0
:100A700001989047A0F130010A290AD24F45E5DCE0
:100A800007EB870100EB4107303FDFD445F010054D
:100A9000ECE7E90601D46FF000476C280AD04C2837
:100AA00014D0682815D06A280DD074281CD07A2854
:100AB0001AD01DE062690121019890476C2802D08C
:100AC00045F0040514E045F002050DE045F0200571
:100AD0000AE06269012101989047682802D045F038
:100AE000080505E045F40065626901210198904719
:100AF000C4E9015765283DD019DC58287AD00CDCB0
:100B0000452837D004DC252826D0412831D131E0D2
:100B100046282FD047282CD12CE05B2877D061289D
:100B200028D063287CD0642823D15AE0D1E06F28F4
:100B300048D008DC66281DD067281BD0692821D042
:100B40006E2816D127E0702845D0732868D0752804
:100B500047D078280DD14DE0A1690B98884705460C
:100B600025283FF469AFE1690B9888476D1C3FF475
:100B70006AAFB4E023466A466FF001000B99AFF309
:100B800000809FE045F040006060A80723464FF0DA
:100B9000000236D43EE0E8077FF447AF2068011D2D
:100BA00021600068290501D506701BE7290701D5DA
:100BB000068017E7A90703D5F117C0E9006111E71F
:100BC00006600FE745F040006060A80723464FF03D
:100BD000080216D41EE040F60E0125EA010060600E
:100BE00016E045F040006060A80723464FF00A0277
:100BF00007D40FE045F040006060A80708D5234601
:100C000010226FF001000B99AFF300805AE007E06B
:100C1000234610226FF001000B99FFF753FB51E0C0
:100C20004FF000094F464B46632802D05B2807D09F
:100C300041E02079C00601D40120A06001273AE0FC
:100C400062690121019890475E2805D14FF00109A2
:100C50006269494601989047216939B900210A46DD
:100C6000534643F82120491C0829FADBB0B3216917
:100C700069B9C11700EBD16253110AEB830122F06D
:100C80001F02821A01200B68904003430B606269C7
:100C90000121019890475D28E8D1B9F1000F09D0F2
:100CA0000020514651F82020D24341F82020401C1A
:100CB0000828F7DB02AB224600976FF001000B9982
:100CC000FFF7A6FB00280CDA401C08D1BBF1000F8F
:100CD00005D04FF0FF300DB0BDE8F08FFFE7404684
:100CE000F9E7E90701D108F1010806444FF0000BCC
:100CF00078E60000CCCCCC0C10B5141E73F10004C7
:100D000008DA401C41F1000192185B411A4301D1FD
:100D100020F0010010BD2DE9F04D92469B4611B127
:100D2000B1FA81F202E0B0FA80F220329046FFF789
:100D300008FC04460F4640EA0A0041EA0B0153460C
:100D40005A46084313D0114653EA010019D0C8F19E
:100D500040025046FFF704FC05460E4650465946F1
:100D60004246FFF7EEFB084305D0012004E0204691
:100D70003946BDE8F08D0020054346EAE0762C4375
:100D800037430A986305E40AA0EB08000022FD0A35
:100D900044EA47540A3002D500200146E9E701053C
:100DA00010196941DDE9084500196941BDE8F04DB8
:100DB000A2E700007F2801D9002208E0064A02EBE2
:100DC0005002C007127800D1120902F00F02012070
:100DD0009040084070470000A8460008FEE7000069
:100DE000014800F0C9B8000038030020014800F0B5
:100DF000C3B8000078020020014800F0BDB8000030
:100E000098030020014800F0B7B80000D802002085
:100E100001681823CAB2103AB2FBF3F2054B6FF324
:100E20000901032A9B5CC36500D9091D8165084639
:100E3000704700008846000810B5014600208B6905
:100E40008A6A4FF0C07453B1B3F5005F15D072B128
:100E5000012A0CD0022A0AD0032A09D104E01AB1CF
:100E6000012A06D0022A03D1C96AC90100D501208E
:100E700010BDC96AA142FAD010BD002AF7D0012ADC
:100E8000F2D0022AF3D0032AF3D010BD30B50468A3
:100E9000256825F480252560046863608368402BFD
:100EA000036803D099600068C26030BD9A60006832
:100EB000C16030BD7047042000F0D2B972B6FEE7C1
:100EC0002DE9F0410446876D00F0CEFA064694F80D
:100ED00035000025022806D08020606584F8345053
:100EE0000120BDE8F0812068016821F01601016051
:100EF0002068416921F080014161206C08B9A06C33
:100F000020B12068016821F00801016020680168B3
:100F100021F0010101600CE000F0A6FA801B052819
:100F200007D920206065032084F8350084F8345008
:100F3000D7E720680068C007EED194F85C103F2026
:100F40008840B860012084F8350084F834500020CF
:100F5000C7E790F83510022903D0802141650120B0
:100F60007047052180F835100068016821F0010103
:100F700001600020704700002DE9F84304464FF05F
:100F80000009CDF8009063484FF41651A56D006834
:100F9000B0FBF1F72E6894F85C10082000FA01F11C
:100FA00031420FD021680A6852070BD50A6822F037
:100FB00004020A6094F85C108840A860606D40F0FC
:100FC0000100606594F85C104FF0010808FA01F028
:100FD000304208D021684969090604D5A860606DCF
:100FE00040F00200606594F85C10042088403042B4
:100FF00008D021680968890704D5A860606D40F0B1
:101000000400606594F85C1010208840304218D0CD
:1010100021680968090714D5A86020680168490398
:1010200004D50068000308D5A16C07E00168C90574
:1010300003D4016821F008010160216C09B1204648
:10104000884794F85C1020208840304231D02168D5
:101050000968C9062DD5A86094F8350005282068D0
:10106000016806D0490347D5006800031DD4616CB0
:101070001CE021F0160101602068416921F0800127
:101080004161206C08B9A06C20B12068016821F092
:101090000801016094F85C103F208840A86084F843
:1010A000358084F83490216D1FE0E16B09B1204652
:1010B0008847606D00282BD0606DC00714D00520D4
:1010C00084F835002068016821F001010160009872
:1010D000401C0090B84203D820680068C007F6D1D1
:1010E00084F8358084F83490E16C002910D001B088
:1010F0002046BDE8F04308470168C905D5D401681A
:1011000021F01001016084F8358084F83490CCE738
:10111000BDE8F883300000202DE9F041044600F0DE
:10112000A3F906465CB1022084F83500002584F856
:1011300034502068016821F0010101600DE00120B8
:10114000BDE8F08100F090F9801B052805D920202A
:101150006065032084F83500F2E720680068C00766
:10116000F0D12268116820480140D4E901031843F6
:10117000D4E903363343184363691843A36918431A
:10118000E3691843236A18430843616A042903D1B9
:10119000D4E90B1319430843106020684069666A5C
:1011A00020F0070130460E43012704280CD1A06A25
:1011B0000643E06A40B12046FFF73EFE20B14020E2
:1011C000606584F83570BAE7206846612046FFF70D
:1011D0001FFE94F85C203F2191408160656584F892
:1011E00035700020ACE700003F8010F02DE9F041A1
:1011F0000446866D90F83400002501280DD00120AA
:1012000084F8340094F835700020012F07D084F85A
:10121000340002252846BDE8F0810220FBE70227C2
:1012200084F8357060652046FFF730FE94F85C1056
:101230003F208840B0602068016841F016010160DD
:10124000206C20B12068016841F00801016020682D
:10125000016841F001010160DCE703F0FBB8000028
:10126000044910B50A68024202D00860FFF7F5FF92
:1012700010BD0000143C01402DE9F84FDFF8BCA17F
:101280000022012503264FF00F090AF1040BAAF1F1
:10129000040E00BF0B6805FA02F42340A34270D18C
:1012A0000F7907F00307012F01D0022F16D18768AD
:1012B0004FEA420806FA08FC27EA0C07D1F80CC0EE
:1012C0000CFA08FC4CEA070CC0F808C04768A743B2
:1012D0000C79C4F3001494403C4344600C79E4431B
:1012E000A4070AD0C4684FEA420C06FA0CF7BC43C4
:1012F0008F6807FA0CF72743C7600C7904F00304E2
:10130000022C12D1D40800EB840CDCF820405707E3
:10131000FF0E09FA07F824EA0804D1F8108008FA49
:1013200007F848EA0408CCF8208004684FEA420C29
:1013300006FA0CF7BC430F7907F0030707FA0CF71E
:10134000274307604C6814F4403F70D03C4C27683A
:1013500047F480472760246822F0030704F48044A0
:101360000094384C07EB040CDCF8084897074FEA68
:10137000177809FA08F7BC43334FB84202D1002767
:1013800024E054E0314FB84201D101271EE0304F34
:10139000B84201D1022719E02E4FB84201D10327EC
:1013A00014E02D4FB84201D104270FE02B4FB84273
:1013B00001D105270AE02A4FB84201D1062705E0EE
:1013C000284FB84201D1072700E0082707FA08F79D
:1013D0002743CCF80878DAF800405746D1F804C023
:1013E0009C435FEACC2C00D51C433C60DBF80040FA
:1013F0005F46D1F804C09C435FEA8C2C00D51C43A7
:101400003C60DEF800407746D1F804C09C435FEAB8
:101410008C3C00D51C433C60084F083F3C68D1F829
:1014200004C09C435FEACC3C00D51C433C60521C8A
:10143000102AFFF42FAFBDE8F88F0000083C0140F0
:1014400044380240003001400000024000040240E5
:1014500000080240000C024000100240001402404C
:1014600000180240001C02400148806870470000DC
:10147000240000200248816802781144816070478E
:10148000240000200B4810B5016841F40071016090
:10149000016841F480610160016841F4807101607C
:1014A000032000F06FF80F2000F006F800F024F899
:1014B000002010BD003C024070B50D4D04464FF4B5
:1014C0007A712878B1FBF0F00A490968B1FBF0F0B5
:1014D00000F00CFB48B9102C07D200222146501E08
:1014E00000F030F800206C6070BD012070BD00007D
:1014F00024000020300000200A4808B5016841F4AB
:1015000080410160006800F4804000900548001FA1
:10151000016841F080510160006800F08050009047
:1015200008BD000044380240002809DB00F01F021B
:10153000012191404009800000F1E020C0F8001135
:1015400070470000F0B40E4B1B680C46C3F3022337
:10155000C3F10705042D00D90425191D072901D25F
:10156000002300E0DB1E012606FA05F1491E21409A
:1015700099409E40761E16403143F0BC02F0C6B83A
:101580000CED00E0064900F0070208684FF6FF0383
:10159000184040EA0220034A1043086070470000E8
:1015A0000CED00E00000FA052DE9F0470E460500BD
:1015B00065D0DFF81481D8F80000F7B200F007001A
:1015C000B04207D288F80070D8F8000000F0070099
:1015D000B04254D128683D4C810712D5400703D54D
:1015E000206840F4E05020602878000703D5206888
:1015F00040F4604020602068A96820F0F0000843B3
:1016000020602878C0072DD0304968680839012843
:1016100012D0022813D0032811D0096889070029A5
:101620002DDA216821F0030101432160FFF71CFF3F
:10163000814641F2883A0EE009688903EFE70968BC
:101640008901ECE7FFF710FFA0EB0901514502D932
:101650000320BDE8F0872068696800F00C00B0EB5B
:10166000810FEFD1D8F80010404601F00701B142D8
:1016700007D90770006800F00700B04201D00120D0
:10168000E7E72878400705D52068E96820F4E050AE
:10169000084320602878000706D52068296920F4CF
:1016A000604040EAC100206000F038F82168084A34
:1016B000C1F30311515CC840064908600648006840
:1016C000FFF7FAFE0020C4E7003C02400838024061
:1016D00090460008300000202800002004480549FA
:1016E00000680968044AC1F38221515CC840704710
:1016F0003000002008380240A04600080448054990
:1017000000680968044AC1F34231515CC84070471F
:101710003000002008380240A0460008154810B5E7
:10172000006810F00C02144813D01449042A0FD09A
:10173000082A0ED10F4C241F2268236802F03F02B2
:101740005B0207D52068C0F38810A0FB010106E00A
:10175000084610BD2168C1F38811A1FB00010023D8
:10176000FEF730FD2168C1F30141491C4900B0FB7F
:10177000F1F010BD083802400024F40040787D01EB
:101780002DE9F84F04006ED02078DFF84C93C007A5
:10179000A9F104054AD009F104000168C1F38101EF
:1017A000012908D00068C0F3810002280AD1D9F8C5
:1017B0000000400206D52868800337D560680028FD
:1017C000E1D033E06068B0F5803F10D0B0F5A02FD5
:1017D000286810D020F480302860286820F4802009
:1017E00028606068A8B1FFF73FFE06460DE0286854
:1017F00040F48030F4E740F480202860F7E700BF31
:10180000FFF732FE801B642873D828688003F7D561
:101810000CE0FFF729FE064605E000BFFFF724FEB7
:10182000801B6428F0D828688003F7D42078DFF87C
:10183000AC8280074FF0000A3ED5A748001D016822
:1018400011F00C0F08D00068C0F3810002280BD102
:10185000D9F80000400207D42868800716D5E06850
:10186000012800D112E033E1E068B8B10120C8F8E6
:101870000000FFF7F9FD064605E000BFFFF7F4FDA5
:10188000801B0228C0D828688007F7D528682169FE
:1018900020F0F80040EAC10028600DE0C8F800A080
:1018A000FFF7E2FD064604E0FFF7DEFD801B02289D
:1018B0001FD828688007F7D42078000722D5864FE4
:1018C00087486169703771B101210160FFF7CCFD74
:1018D000064604E0FFF7C8FD801B022809D83868D7
:1018E0008007F7D50EE0C0F800A0FFF7BDFD064663
:1018F00005E082E0FFF7B8FD801B02287DD838683C
:101900008007F7D42078400768D5DFF8CCB10027EE
:101910000BF13C0BDBF80000C0000BD4DBF800102F
:1019200041F08051CBF80010DBF80000012700F0F7
:10193000805000906B4E3068C00510D4306840F481
:1019400080703060FFF790FD009005E0FFF78CFDA0
:101950000099401A022850D83068C005F6D55E4E6E
:10196000A0686C3601280FD00528306810D020F010
:1019700001003060306820F004003060A068B8B129
:10198000FFF772FD00900FE0306840F00100F4E7CF
:1019900040F004003060F7E7FFF766FD0099411A58
:1019A00041F28830814266D830688007F4D50EE075
:1019B000FFF75AFD009007E0FFF756FD0099411A26
:1019C00041F28830814256D830688007F4D42FB174
:1019D000DBF8001021F08051CBF80010A069C8B3EB
:1019E0003D49091D0968C1F3810102294AD0022835
:1019F000504607D0C8F8600000E03CE0FFF734FD37
:101A000004463BE04746C8F86000FFF72DFD064658
:101A100005E000BFFFF728FD801B02282BD82868AF
:101A20008001F7D4D4E907010843A16A2E4A490886
:101A300002EB0141626A41EA8211084394F82C10DA
:101A400040EA0161C9F8001001203866FFF70CFD7B
:101A5000044606E03EE000BFFFF706FD001B02283B
:101A600009D828688001F7D534E000BFFFF7FCFCF7
:101A7000001B022802D90320BDE8F88F28688001E6
:101A8000F4D427E00128F7D0D9F80000E26900F487
:101A9000800191421CD1226A00F03F01914217D18E
:101AA00047F6C071626A0140B1EB821F10D1A26A91
:101AB0004FF0FF3300F4403103EB5202B1EB024F21
:101AC00006D194F82C1000F07060B0EB016F01D0DB
:101AD0000120D1E70020CFE7043802400000474250
:101AE000800E4742007000400000FFFF10B5401E0E
:101AF000B0F1807F01D3012010BD4FF0E024606180
:101B00000F21601701F002FE0020A0610720206174
:101B1000002010BD7047704710B590F83C20012A96
:101B200022D0012280F83C20CA688C6822F44072DE
:101B300022434C6822F4806222430C6822F4006243
:101B400022430C6922F4805222434C6922F4005251
:101B50002243C969002322F480420A4301684A648F
:101B600080F83C30002010BD022010BD70B590F808
:101B70003C20012A32D0012480F83C40022280F827
:101B80003D2003685A689D6822F070060A68324357
:101B90005A60134B02689A4214D0B2F1804F11D0B0
:101BA000104B9A420ED0104B9A420BD00F4B9A42D8
:101BB00008D00F4B9A4205D00E4B9A4202D00E4BE2
:101BC0009A4204D1496825F080031943916080F856
:101BD0003D40002180F83C10084670BD022070BDD9
:101BE000000001400004004000080040000C0040DC
:101BF00000040140004001400018004010B50400FE
:101C000003D094F83D0010B107E0012010BD002082
:101C100084F83C00204600F01FF8022084F83D00C4
:101C2000211D206801F0B6F9012084F8460084F8EF
:101C30003E0084F83F0084F8400084F8410084F8B6
:101C4000420084F8430084F8440084F8450084F896
:101C50003D00002010BD000008B500681149884211
:101C600009D11148016841F001010160006800F0EC
:101C70000100009008BD0D498842FBD10A48001FB1
:101C8000016841F0200101600068002200F020009E
:101C9000009011463720FFF755FCBDE8084037207B
:101CA000FFF742BC000001404438024000140040ED
:101CB00090F83D10012901D001207047022180F8E1
:101CC0003D100168CA6842F00102CA60006811490B
:101CD000884214D0B0F1804F11D00F4988420ED005
:101CE0000E4988420BD00E49884208D00D498842DF
:101CF00005D00D49884202D00C49884204D1816840
:101D000001F00701062903D0016841F001010160DB
:101D1000002070470000014000040040000800401F
:101D2000000C004000040140004001400018004049
:101D300070B5044690F83C000025012817D0012614
:101D400084F83C60022084F83D002068826822F01C
:101D5000770222F47F4282600868502838D00DDC78
:101D600020284FD005DC90B3102811D14AE0022082
:101D700070BD302846D040280AD13BE060282FD0E3
:101D800070280DD0B0F5805F03D0B0F5005F12D0A1
:101D9000012584F83D60002084F83C00284670BD91
:101DA000CB68D1E90121206801F069F920688168D8
:101DB00041F0770109E0CB68D1E90121206801F009
:101DC0005EF92068816841F480418160E1E719E0B3
:101DD000CA684968206801F027FA5021206806E0A7
:101DE000CA684968206801F030FA6021206801F073
:101DF00050F9CEE7CA684968206801F015FA402119
:101E00002068F4E7226801461046F0E72DE9F0412A
:101E10000D46040003D094F83D0018B108E00120FD
:101E2000BDE8F081002084F83C00204600F040F836
:101E3000022084F83D002068816844F20702914343
:101E40008160211D206801F0A5F8226890689169E1
:101E5000166A2B68AF69034340F20330814341EABD
:101E60000721A868EF6908434FF6FC418843E968F9
:101E700040EA0720014328692F6A000140EA073041
:101E8000084369686D6926F0AA0646EA05152943E4
:101E900093602268906154F8460B0162012004F8B7
:101EA0001F09E0752076E0762077A0750020B7E75F
:101EB00030B587B0044614216846FEF7CDF92A48AC
:101EC0002468284D0022284910380223AC4221D131
:101ED0000C6844F004040C60096801F004010591E9
:101EE000016841F0080101600068694600F00800DF
:101EF00005904FF440500090CDE901321B48CDE9E8
:101F00000323FFF7B9F9002211461E20FFF71AFB41
:101F10001E2022E0164DAC4221D10C6844F008048A
:101F20000C60096801F008010591016841F00101A8
:101F300001600068694600F00100059003200090F0
:101F4000CDE901320B48CDE90323FFF795F90022D3
:101F500011463220FFF7F6FA3220FFF7E5FA07B014
:101F600030BD00000008004040380240000C024034
:101F7000000C00400000024070B590F83E6004463E
:101F800090F83F5090F8423090F84320022021B161
:101F900004290ED0012E1BD114E0012E18D1012BE3
:101FA00016D184F83E0084F8420001220021206806
:101FB00020E0012D0CD1012A0AD184F83F0084F8D9
:101FC000430014E0012D03D1012B01D1012A01D0DE
:101FD000012070BD84F83E0084F83F0084F8420080
:101FE00084F8430001220021206801F03BF801221F
:101FF0000421206801F036F82068016841F00101F1
:102000000160002070BD70472DE9F0410446006872
:10201000C66805694FF00007A90713D5B10711D5A8
:10202000F91E016101202077206880698007204621
:1020300002D0FFF7E8FF04E000F0A8F8204600F027
:102040003AF92777680716D5700714D521686FF01D
:1020500004000861022020772068806910F4407F26
:10206000204602D0FFF7CFFF04E000F08FF82046B3
:1020700000F021F92777280715D5300713D52168F7
:102080006FF008000861042020772068C06980078D
:10209000204602D0FFF7B7FF04E000F077F82046B3
:1020A00000F009F92777E80616D5F00614D521685F
:1020B0006FF010000861082020772068C06910F4D4
:1020C000407F204602D0FFF79EFF04E000F05EF85C
:1020D000204600F0F0F82777E80708D0F00706D090
:1020E00021686FF001000861204600F049F92806D8
:1020F00008D5300606D521686FF0800008612046BB
:10210000FFF708FD680608D5700606D521686FF050
:1021100040000861204600F041F9A8060AD5B00643
:1021200008D521686FF0200008612046BDE8F04125
:10213000FFF7F1BCBDE8F08110B586B0044614216C
:102140006846FEF789F80E492068884216D10D4886
:102150000021026842F010020260006800F01000E6
:1021600005904FF4D44000900220CDE901010120F8
:10217000CDE9031069460448FFF77EF806B010BDAC
:10218000000001403038024000100240704770B536
:10219000044690F83C0000260D4601280FD001208F
:1021A00084F83C006AB1042A1DD0082A2FD00C2ADA
:1021B0003FD00126002084F83C00304670BD02204C
:1021C00070BD206800F06EFF2068816941F0080151
:1021D00081612068816921F0040181612068816941
:1021E0002A69114311E0206800F08CFF20688169A2
:1021F00041F4006181612068816921F4806181611D
:10220000206881692A6941EA02218161D2E7206858
:1022100000F0AEFF2068C16941F00801C16120688B
:10222000C16921F00401C1612068C1692A691143B3
:1022300011E0206800F0D0FF2068C16941F400611E
:10224000C1612068C16921F48061C1612068C169F0
:102250002A6941EA0221C161ACE710B5040003D04C
:1022600094F83D0010B107E0012010BD002084F873
:102270003C00204600F01EF8022084F83D00211D9D
:10228000206800F087FE012084F8460084F83E00B4
:1022900084F83F0084F8400084F8410084F842004C
:1022A00084F8430084F8440084F8450084F83D0035
:1022B000002010BD7047704710B50446022249B196
:1022C00004290ED0082913D094F84100012816D013
:1022D000012010BD94F83E000128F9D184F83E2079
:1022E0000FE094F83F000128F2D184F83F2008E085
:1022F00094F840000128EBD184F8402001E084F8F4
:1023000041200122206800F0ADFE16492068164ADF
:10231000884201D0904203D1436C43F400434364AC
:102320002068884213D0B0F1804F10D00F49884206
:102330000DD00F4988420AD00E49884207D09042FA
:1023400005D00D49884202D00C49884204D18168E9
:1023500001F00701062903D0016841F00101016085
:10236000002010BD000001400004014000040040B6
:1023700000080040000C00400040014000180040F0
:1023800010B500680449884205D101F0EFFFBDE8AF
:10239000104001F05DBF10BD00140040704738B51B
:1023A000044690F84200202801D0022038BD51B1E7
:1023B0004AB10120206300206063204601F0F8F854
:1023C000216B012901D0012038BD21680A684968C4
:1023D000009121680C3151E8002F42F0100241E8D1
:1023E0000023002BF5D138BD00F042BD704700003E
:1023F000F8B5016804460868CA684B6910F00F0F09
:102400004FF0000559D003F0010602F490773743EE
:1024100065D0C10705D0D10503D5616C41F001013C
:102420006164410705D5D90703D0616C41F0020111
:102430006164810705D5D90703D0616C41F00401BF
:102440006164010707D502F02001314303D0616CBC
:1024500041F008016164616C00293AD0800604D51E
:10246000900602D5204600F0BCFF20684069616CF0
:10247000C0F38010090700D460B3204600F07CFF51
:1024800020684069400621D52068143050E8001FBC
:1024900021F0400140E80012002AF5D1E06BA8B11C
:1024A00072490165E06BFEF754FD002811D0E06B26
:1024B000016D01B0BDE8F040084783060FD59306D3
:1024C0000DD52046BDE8F84000F08BBF2046FFF751
:1024D0008DFFF8BD2046FFF789FF6564F8BD266BC8
:1024E0002023012E7ED1C6067CD5D6067AD5086873
:1024F0004868009048694FF0020640064DD5E26BEF
:10250000106840684FF480770004000C3AD0A18D29
:10251000814237D9E085D069B8422DD020680C308F
:1025200050E8001F21F4807140E80012002AF5D124
:102530002068143050E8001F21F0010140E800122B
:10254000002AF5D12068143050E8001F21F0400126
:1025500040E80012002AF5D184F842302563206853
:102560000C3050E8001F21F0100140E80012002A52
:10257000F5D1E06BFEF7A4FC6663A08DE18D401AF7
:1025800081B206E0A18D8142A8D1D069B842A5D11F
:1025900066632046FFF728FFF8BDA08DE18D401A45
:1025A00081B2E08D0028F7D00029F5D020680C30EA
:1025B00050E8002F22F4907240E80027002FF5D158
:1025C0002068143050E8002F22F0010240E8002774
:1025D000002FF5D184F84230256320680C3050E894
:1025E000002F00E006E022F0100240E80023002B5C
:1025F000F3D1CDE705062BD5150629D594F8410072
:102600002128C9D1A068B0F5805F01D12069B0B19F
:10261000206A411C2162216800784860E08C401EDD
:102620000004000CE084B7D12068C16821F080016B
:10263000C1602068C16841F04001C160F8BD206AF6
:102640000088C0F308004860206A801C2062E5E72B
:102650004006F3D55006F1D5CA68204622F0400264
:10266000CA6084F8413000F0DFF9F8BD7D3200081F
:1026700070B5040004D094F84100002510B106E0C4
:10268000012070BD84F84050204600F023F824203B
:1026900084F841002068C16821F40051C1602046DF
:1026A00000F000FF2068016921F490410161206879
:1026B000416921F02A0141612068C16841F400515B
:1026C000C1606564202084F8410084F8420065639D
:1026D000002070BD2DE9F04F87B0054614216846F3
:1026E000FDF7BAFD9C48DFF86C8210380221D5F85E
:1026F00000C00024984B03228F0606154FF0080BEC
:10270000C44552D1D3F800C04CF4801CC3F800C0BB
:102710001B6803F480130593036843F0040303600C
:10272000036803F004030593036843F008030360A0
:102730000068894600F008000590C802CDE900094C
:10274000CDE902429246D8466946CDF810B083489A
:10275000FEF792FD0420CDE90009CDE9024A694661
:10276000CDF810807E48FEF787FDDFF8FC817D49BB
:102770004046E0E80217402152C040F81449846105
:10278000C46104624046C8F82440FEF7C5FC08B1A5
:10279000FEF794FBC5F83880002211463520C8F8B2
:1027A0003850FEF7CFFE35204DE0DFF8C081DFF86E
:1027B000A891DFF8BCE109F104094FF0070AC4450C
:1027C00046D1D9F800C04CF0100CC9F800C0D9F8B7
:1027D000003003F010030593036843F00103036026
:1027E000006800F0010005904FF4C0608DE8130010
:1027F000CDE9032A69467046FEF73EFDDFF86881A1
:102800005C4908F160084046C8F80010C0E901744E
:10281000C0E90346C8F81440C8F81840C8F81C407E
:10282000C8F82040C8F82440FEF776FC08B1FEF74F
:1028300045FBC5F83C80002211462520C8F83850D9
:10284000FEF780FE2520FEF76FFE07B0BDE8F08F93
:10285000DFF82481C44541D1D3F800C04CF4003CDA
:10286000C3F800C01B6803F400330593036843F00A
:1028700001030360006800F0010005900C208DE862
:102880001300CDE9032A69467046FEF7F5FCDFF830
:10289000D880344908F1C00830394046C8F80010E3
:1028A000C0E90174C0E90346C8F81440C8F81840EC
:1028B000C8F81C40C8F82040C8F82440FEF72CFC9B
:1028C00008B1FEF7FBFAC5F83C800022114626202D
:1028D000C8F83850FEF736FE2620B4E7274B9C4553
:1028E000B3D1D9F8007047F02007C9F80070D9F8C3
:1028F000003003F020030593036843F004030360F2
:10290000006800F004000590C0208DE81300CDE9B8
:10291000032B69461148FEF7AFFC1648184F1838CC
:1029200038608005C7E90104C7E903467C61BC61E2
:10293000FC613C6238467C62FEF7EEFB08B1FEF7B4
:10294000BDFAEF63002211464720BD63FEF7FAFD92
:10295000472078E70050004040380240000802401D
:10296000000C0240B86002407802002000100140D4
:102970000000024040640240004400400014014056
:1029800098030020704770472DE9F843044690F8FB
:102990004100984616460D46202802D00220BDE888
:1029A000F88385B17EB100206064212084F8410065
:1029B000FEF75AFDA6848146E684A0682027B0F57C
:1029C000805F02D003E00120E9E7206910B12E46C4
:1029D00000250EE000260CE08021204600F038FEA5
:1029E000A8B9C6B116F8010B21684860E08C401EFA
:1029F000E084E08C4B464FF00002CDF800800028C8
:102A0000EAD14FF04001204600F022FE40B184F8A8
:102A100041700320C3E735F8020BC0F30800E3E779
:102A200084F841700020BAE77047FEE7194808B5FE
:102A3000016841F480010160016801F480010091A6
:102A4000016841F4001101600068002200F40010E8
:102A5000009011461020FEF775FD1020FEF764FD72
:102A6000002211462F20FEF76DFD2F20FEF75CFDA2
:102A7000002211463920FEF765FD3920FEF754FD8E
:102A8000002211463A20FEF75DFDBDE808403A20DD
:102A9000FEF74ABD3038024000B587B014216846C1
:102AA000FDF7DAFB1E48016841F010010160016882
:102AB00001F010010591016841F080010160016899
:102AC00001F080010591016841F001010160016898
:102AD00001F001010591016841F008010160016800
:102AE00001F008010591016841F0040101600068EE
:102AF000694600F004000590042000904FF4041093
:102B00000190012002900748FEF7B6FB0022114613
:102B10000820FEF717FD0820FEF706FD07B000BDF0
:102B2000303802400010024010B596B000240F94D7
:102B300010941194129413941C2168461494FDF778
:102B40008BFB202107A8FDF787FB34483249C0E9F9
:102B5000001442F2CF01C0E9024104614461846182
:102B6000FFF74CF808B1FEF7A9F94FF480500F9029
:102B70000FA92A48FFF7DCF808B1FEF79FF92748AC
:102B8000FFF76BFB08B1FEF799F9139413A92348DB
:102B90001494FEF7EBFF08B1FEF790F96020CDE941
:102BA00000040294039404940594002269461B488F
:102BB0000694FFF7ECFA08B1FEF780F904226946A3
:102BC0001648FFF7E4FA08B1FEF778F908226946DB
:102BD0001248FFF7DCFA08B1FEF770F90C226946DB
:102BE0000E48FFF7D4FA08B1FEF768F90794089485
:102BF00009944FF400500A94CDE90B4007A9074807
:102C00000E94FEF789FF08B1FEF758F90348FFF765
:102C100093FA16B010BD00000000014038000020FB
:102C200010B58CB024216846FDF716FB0024164829
:102C3000099414490A94C0E900144FF6FF71C0E9E1
:102C40000241046184610320CDE900040120CDE943
:102C5000020406210491CDE90540CDE9074169460A
:102C60000948FFF7D3F808B1FEF728F9099409A934
:102C700005480A94FEF77AFF002801D0FEF71EF9F6
:102C80000CB010BD000800408000002010B58CB0D2
:102C900024216846FDF7E0FA0024164809941449F7
:102CA0000A94C0E900144FF6FF71C0E902410461C3
:102CB00084610320CDE900040120CDE9020406214E
:102CC0000491CDE90540CDE9074169460948FFF780
:102CD0009DF808B1FEF7F2F8099409A905480A948D
:102CE000FEF744FF002801D0FEF7E8F80CB010BD55
:102CF000000C0040C80000201CB500240F480094C0
:102D00000D490194016042F2CF01C0E90114632131
:102D1000C16080218161FEF771FF08B1FEF7CEF836
:102D20000094694605480194FEF720FF002801D071
:102D3000FEF7C4F81CBD0000001400401001002084
:102D40000C4810B50A4901604FF4E131416000219F
:102D500081600C22C160C0E904128161C161FFF78A
:102D600087FC002803D0BDE81040FEF7A7B810BDCF
:102D700000500040580100200C4810B50A4901607D
:102D80004FF4E1314160002181600C22C160C0E953
:102D900004128161C161FFF76BFC002803D0BDE81C
:102DA0001040FEF78BB810BD00100140A0010020BC
:102DB0000C4810B50A4901604FF4E131416000212F
:102DC00081600C22C160C0E904128161C161FFF71A
:102DD0004FFC002803D0BDE81040FEF76FB810BDCF
:102DE00000440040E80100200C4810B50A49016089
:102DF0004FF4E1314160002181600C22C160C0E9E3
:102E000004128161C161FFF733FC002803D0BDE8E3
:102E10001040FEF753B810BD0014014030020020EE
:102E20000F4910B5002088710E49802208730E31B9
:102E30000D48FFF7B4FA0C48C06B0068016821F038
:102E400008010160074980228E310848FFF7A7FA80
:102E50000648C06B0068016821F00801016010BDE0
:102E600010000020F8030020A0010020E80100204D
:102E700010B50F4CA04206D10E4801F065FB802230
:102E80000C4920460AE00C4CA0420FD10948803082
:102E900001F0A0FB0749802280312046FFF77FFA2E
:102EA000E06B0068016821F00801016010BD0000BE
:102EB000A001002006040020E8010020FEE7FEE754
:102EC00070477047FEF7D6BA30B593B030216846E8
:102ED000FDF7C2F914210CA8FDF7BEF91E48002524
:102EE000016841F080510160006800F0805011904D
:102EF0001A48016841F4804101600068022400F42E
:102F00008040119001200090000401908001CDE9E3
:102F10000640192008904FF4A870CDE90904042058
:102F20000B906846FEF72CFC08B172B6FEE70CA9C0
:102F30000F2081E831004FF4A0500F904FF48050E3
:102F4000109005210CA8FEF72FFB002801D072B6C7
:102F5000FEE713B030BD0000403802400070004072
:102F60000248016841F470010160704788ED00E09B
:102F70000148FFF749B80000800000200148FFF732
:102F800043B80000C80000200148FFF73DB800002A
:102F900010010020F0B50268274B284D284E294F1C
:102FA000294C4FF0804C984209D0604507D0A84288
:102FB00005D0B04203D0B84201D0A04204D122F0E3
:102FC000700E4A6842EA0E0298421BD0604519D042
:102FD000A84217D0B04215D0B84213D0A04211D0A9
:102FE0001A4DA8420ED01A4DA8420BD0194DA84236
:102FF00008D0194DA84205D0184DA84202D0184D4E
:10300000A84203D122F44075CA682A434D6922F0D0
:1030100080022A438D68C5620D688562984201D09E
:10302000A04201D109690163016841F00401016016
:10303000012141610260F0BD000001400004004038
:1030400000080040000C0040000401400040014026
:10305000004401400048014000180040001C0040AE
:103060000020004010B501F01F030121046A9940BF
:103070008C430462016A9A401143016210BD10B58D
:10308000846842EA032224F47F440A432243826094
:1030900010BD826822F070020A4342F0070181608D
:1030A00070470000F0B5036A026A22F00102026272
:1030B00042688469124E24F073050C682C4323F097
:1030C00002058B682B430D4DA84201D0B04205D1BB
:1030D00023F00807CB683B4323F00403A84201D048
:1030E000B04205D14D6922F4407215438A692A43E2
:1030F00042608461496841630362F0BD00000140A1
:1031000000040140F0B5026A036A23F01003036271
:10311000436884690D6824F4E64444EA05248D6814
:1031200022F0200242EA05120F4D104EA84201D0B3
:10313000B04206D1CF6822F0800242EA071222F0A4
:103140004002A84201D0B04207D14D6923F4406348
:1031500043EA85038D6943EA8503436084614968D6
:1031600081630262F0BD00000000014000040140E4
:10317000F0B5026A036A23F4807303624368C4698A
:1031800022F4007224F073050C68124E2C438D68F3
:1031900042EA05220E4DA84201D0B04206D1CF68C6
:1031A00022F4006242EA072222F48062A84201D09F
:1031B000B04207D14D6923F4405343EA05138D69AA
:1031C00043EA05134360C4614968C1630262F0BD0C
:1031D000000001400004014030B5046A026A22F494
:1031E000805202624268C3690D6823F4E64343EAF1
:1031F00005238D6824F4005444EA0534084DA842A0
:1032000002D0084DA84204D14D6922F4804242EA1E
:1032100085124260C36149680164046230BD0000E8
:10322000000001400004014010B5036A046A24F064
:1032300001040462846924F0F00444EA021423F0D7
:103240000A020A438461026210BD10B5036A046A6F
:1032500024F010040462846923F0A00324F4704471
:1032600044EA023243EA01118261016210BD0000AA
:103270000148FFF7BDB800005801002010B5806B71
:103280000021C185FFF7B2F810BD70B5846B2068CE
:10329000406994F84110C0F3C0100025212904D1E1
:1032A00018B1E584204600F08EF82068406994F853
:1032B0004210C0F38010222904D118B1E5852046C0
:1032C00000F05AF8606C40F0100060642046FFF790
:1032D0008DF870BD10B50146806B096809684FF024
:1032E0000002C9052ED4C28501680C3151E8003FA7
:1032F00023F4807341E80034002CF5D101681431C7
:1033000051E8003F23F0010341E80034002CF5D1DF
:103310000168143151E8003F23F0400341E80034D4
:10332000002CF5D1202180F84210016B012909D130
:1033300001680C3151E8003F23F0100341E80034EC
:10334000002CF5D14263016B012902D0FFF71AFB73
:1033500010BD818DFFF748F810BD10B5806B0121BD
:103360004163016B012902D0FFF70DFB10BD818D78
:103370004908FFF739F810BD01680C3151E8002FFA
:1033800022F4907241E80023002BF5D1016814313A
:1033900051E8002F22F0010241E80023002BF5D173
:1033A000016B012909D101680C3151E8002F22F08D
:1033B000100241E80023002BF5D1202180F84210B3
:1033C00000210163704701680C3151E8002F22F0A1
:1033D000C00241E80023002BF5D1202180F84110E4
:1033E000704708B590F84210222901D0022008BD8C
:1033F00082684FF480539A4201D1016921B1816AF8
:103400009A421BD04AB10AE00268816A5268C2F34C
:1034100008020A80816A891C08E0026972B10268A8
:10342000526802F07F020A70816A491C8162C18D74
:10343000491E0904090CC18503D01BE002685268CB
:10344000F1E70168CA6822F02002CA600168CA6810
:1034500022F48072CA6001684A6922F001024A615E
:10346000202180F8421000214163026B012A03D021
:10347000FFF788FA002008BD016301680C3151E8AC
:10348000002F22F0100241E80023002BF5D1016843
:103490000A68D20602D50A6849680091818DFEF754
:1034A000A3FFE7E770B5044600680169E26821F40C
:1034B0004051114301612169A068E26908436169D3
:1034C000114308432168CA6849F20C639A430243D6
:1034D000CA6020684169A26921F4407111434161C9
:1034E00031492068884202D03049884202D1FEF733
:1034F00005F901E0FEF7F2F8E269002319216425DD
:103500003226B2F5004F626828D0A0FB0101930F6C
:103510009200FCF757FE0146B0FBF5F06FF0180281
:10352000504301EB800006EB0010B0FBF5F000F01B
:10353000F002B1FBF5F002EB0012B1FBF5F06FF019
:103540001803584301EB800006EB0010B0FBF5F0C8
:1035500000F00F0021681044886070BDA0FB0101DD
:1035600092185B41FCF72EFE0146B0FBF5F002011C
:10357000B1FBF5F06FF01803584301EB800006EB48
:10358000C000B0FBF5F000F0F80002EB4002B1FB28
:10359000F5F0584301EB800006EBC000B0FBF5F0FE
:1035A00000F00700D6E700000010014000140140C1
:1035B00038B5816204468285002013466064222269
:1035C00084F84220E56B1F4AEA63E56B1E4A2A64D1
:1035D000E56B1E4AEA64E26B10650A462168E06BFF
:1035E000091DFDF703FE30B110206064202084F82F
:1035F0004200012038BD20680168406800902069C1
:1036000048B120680C3050E8001F41F4807140E858
:103610000012002AF5D12068143050E8001F41F054
:10362000010140E80012002AF5D12068143050E86A
:10363000001F41F0400140E80012002AF5D10020AF
:1036400038BD0000D53200085B3300088B3200081B
:103650002DE9F843984617460D460446089E24E097
:10366000701C22D0FDF700FFA0EB0800B0421AD872
:10367000CEB12068C168490717D5802D15D0402DDF
:1036800013D00168C94309070FD4016800254068B9
:1036900000902046FFF770FE0820606484F84050D8
:1036A0000120BDE8F8830320FBE72068006835EAC5
:1036B000000004D00020B842D2D00020F1E7012061
:1036C000F9E700000148FEF793BE0000A0010020CA
:1036D0000148FEF78DBE0000E80100200148FEF71A
:1036E00087BE000030020020FEE700000FB4054B4B
:1036F00010B503A9044A029800F0EAF810BC5DF87E
:1037000014FB00003D440008340000200907090EA6
:10371000002804DB00F1E02080F80014704700F07E
:103720000F0000F1E02080F8141D704702E008C887
:10373000121F08C1002AFAD170477047002001E02B
:1037400001C1121F002AFBD1704700002DE9FF5F65
:1037500082B00021DDE90430020DDDF840B0034302
:1037600018D044F61050A2F2FF32424315141198BB
:1037700001281FD0A5EB0B00401C5FEA000A4FF0A8
:1037800000064E4FDFF83891B046504615D5CAF1C5
:10379000000413E0119801244AA3012801D16FEA23
:1037A0000B010298119AC0E90031C0E9024206B04B
:1037B000BDE8F09FCBF10000DFE704460021404A5E
:1037C000491842EB0450CDE9001012E0E00707D0A1
:1037D00032463B4640464946FCF7BBFF8046894699
:1037E00032463B4610461946FCF7B3FF06460F46E5
:1037F0006410002CEAD1DDE90401DDE90023BAF10F
:10380000000F06DAFCF7A5FF42464B46FCF7A1FF86
:1038100005E0FDF710F842464B46FDF70CF804466C
:103820000E460022284BFDF78DF803D84FF0FF30ED
:10383000014607E00022254B20463146FCF7E2FE18
:10384000FDF768F8102409E0002C0ADB0A220023A7
:10385000FCF7B8FC039B30321A55641E50EA010293
:10386000F2D1641C039AC4F111031444119A012A81
:1038700003D0012208430DD10AE0084304D0002000
:103880004FF0110B119072E7A3EB0B056D1E0DE0CD
:103890005B4504DD4FF0000205F1010504E003DAA9
:1038A0004FF00002A5F10105002AECD00298119911
:1038B000C0E90231C0E9004579E70000000014408A
:1038C0000000F03F300000000000F0430000E03F47
:1038D0002DE9FF4F95B09A46884606460025EEE151
:1038E000252877D100242746F94A0121039400E0D6
:1038F000044316F8013F203B01FA03F01042F7D1D0
:1039000030782A2811D06FF02F033078A0F13002E0
:10391000092A16D8039A44F0020402EB820203EB50
:1039200042021044761C0390EFE758F8042B0392F0
:10393000002A03DA504244F40054039044F0020495
:10394000761C30782E2816D116F8010F44F00404A6
:103950002A280DD06FF02F023078A0F13003092B08
:1039600009D807EB870302EB4303C718761CF3E77C
:1039700058F8047B761C30786C280FD006DC4C2875
:1039800017D068280DD06A2814D104E0742810D00C
:103990007A280FD10DE044F400140AE044F48014B6
:1039A00001E044F440147278824202D104F580149C
:1039B000761C761C307866280BD013DC582877D01C
:1039C00009DC002875D04528F6D04628F4D04728D1
:1039D0001AD193E118E0632835D0642879D065289E
:1039E00012D18BE1702873D008DC6728F1D06928E8
:1039F0006FD06E280DD06F2806D1ACE073282CD084
:103A0000752874D0782853D05246179990476D1C6A
:103A100054E1C4F30250022809D003280DD0D8F88D
:103A2000001004280DD00D6008F1040846E1D8F814
:103A30000010EA17C1E90052F6E7D8F800100D802F
:103A4000F2E70D70F0E718F8041B8DF80010002065
:103A50008DF80100EB46012003E058F804BB4FF05D
:103A6000FF3061074FF0000102D40DE009F10101C0
:103A70008946B9420FDA8145F8DB1BF809100029A5
:103A8000F4D108E009F1010189468142FADB1BF813
:103A900009100029F6D103985346A0EB09072146E7
:103AA0003846179A00F080FA284400EB090507E031
:103AB00044E008E10DE01BF8010B524617999047CE
:103AC000B9F10109F7D2534621463846179AF2E078
:103AD00039E00A21C4F302524FF0000B0091022A90
:103AE00006D058F8040BC117032A09D00AE023E0D6
:103AF00008F1070020F00702F2E80201904605E015
:103B000000B2C117042A01D140B2C117002906DA58
:103B10000A460021404261EB02012D2202E022050B
:103B200004D52B228DF80420012203E0E20701D006
:103B30002022F7E7914657E00A2100E010214FF0DC
:103B4000000B00910BE010214FF0000B44F0040437
:103B50000827009103E008204FF0000B0090C4F309
:103B60000252022A05D058F8040B0021032A08D07B
:103B700008E008F1070020F00702F2E80201904691
:103B800003E080B2042A00D1C0B24FF0000922073E
:103B90002AD53278702A07D0DDF800C08CF0100CDE
:103BA0005CEA0B0C05D00EE040228DF804200122C7
:103BB00008E050EA010306D030238DF804308DF878
:103BC000052002229146009B83F0080353EA0B0371
:103BD0000AD150EA010201D1620705D530228DF8E1
:103BE00004204FF001097F1E3278582A04D039A2F0
:103BF0000C920CAA02920BE03BA2F9E75B46009AFA
:103C0000FCF7E0FA0C9B9B5C029A521E0292137026
:103C100050EA0102F2D1029804A9081A00F1200B1F
:103C2000600702D524F4803400E001275F4502DDFF
:103C3000A7EB0B0000E0002000EB0B0100900398C5
:103C40004944401A0390E00306D453462146179A8C
:103C5000039800F0A9F90544002706E001A85246A0
:103C6000C05D179990476D1C7F1C4F45F6DBE00344
:103C70000CD553462146179A039800F095F9054450
:103C800004E030205246179990476D1C0099481E59
:103C900000900029F5DC08E002980299524600786D
:103CA000491C0291179990476D1CBBF10001ABF1C3
:103CB000010BF1DC5BE100F065F90544761C30781E
:103CC00000287FF40DAE19B02846BDE8F08F000043
:103CD00009280100303132333435363738396162E2
:103CE00063646566000000003031323334353637A6
:103CF000383941424344454600000000600700D483
:103D0000062708F1070020F00700F0E802238046AC
:103D100003F0004C5FEA0C0001D097A009E02005F9
:103D200001D596A005E0E00701D095A001E0AFF233
:103D30004C001390307823F0004365280CD006DC4B
:103D4000452809D046281DD047287FD13BE066286A
:103D500018D067287AD136E00021112F01DB11201D
:103D600000E0781CCDE9000104A90CA8FFF7EEFCE7
:103D7000DDE90D010C9A4FF0000B07F101091092DB
:103D800000914EE04FF000400097CDE9011004A9EA
:103D90000CA8FFF7DBFCDDE90D020C9B0F994FF03F
:103DA000000B91461093009211B9791C00EB0109A8
:103DB000B7EB090003D4C0F1FF3B07F10109A9EB00
:103DC0000700019042E0012F00DA01270021112FA6
:103DD00001DD112000E03846CDE9000104A90CA85E
:103DE000FFF7B4FCDDE90D010C9A00914FF0000BD8
:103DF000B946109221070FD4009A4A4503DA91463A
:103E000001E0A9F10109B9F1010F05DD109AA9F14D
:103E10000101515C3029F4D0B84202DA10F1040FEC
:103E200003DA0121CDE9011010E0002803DC83440E
:103E3000A9EB000102E0411C494500DD8946A0EBE9
:103E40000B00401C01904FF000400290200705D469
:103E50000198484502DB4FF0FF30019000208DF8BB
:103E60004B0002980DF14B07B0F1004F25D0022016
:103E70000C902B200D90029800280CDA4042029002
:103E80002D200D9007E00A210298FCF744FB303109
:103E9000029007F8011D0C99481E0C900029F2DCD5
:103EA00002980028EFD1791E0D980870307800F044
:103EB000200040F0450007F8020D11A8C01BC01DEE
:103EC00002901398007800B1012000EB09010198DD
:103ED00001EBE071029801440398401A401E0390E0
:103EE000E00306D453462146179A039800F05CF885
:103EF00005441398007818B15246179990476D1CE5
:103F0000E00323D553462146179A039800F04CF856
:103F100005441BE0BBF1000F07DB0098584504DDAA
:103F20001098179910F80B0001E0179930205246AD
:103F3000904701980BF1010B401E05F1010501901E
:103F400004D12E205246179990476D1CB9F10001FB
:103F5000A9F10109DEDC05E017F8010B52461799BB
:103F600090476D1C0299481E02900029F4DC5346CC
:103F70002146179A03989EE62D0000002B000000B2
:103F8000200000002DE9F041044600251E4617469A
:103F9000880404D405E039462020B0476D1C641E17
:103FA000F9D52846BDE8F0812DE9F0410446002509
:103FB0001E469046C80301D5302700E0202788041C
:103FC00004D505E041463846B0476D1C641EF9D55E
:103FD0002846BDE8F081000010B51F4C2078042869
:103FE00039D2DFE800F002040D2C1CA023E02BA046
:103FF000FFF77CFB9FED340A00F01EF933A01AE0B6
:104000003FA0FFF773FB48488179002912D001884F
:1040100061804188A1808188E18000218171032035
:10402000207042A0FFF762FBE388A28861884BA062
:10403000FFF75CFB58A0BDE81040FFF757BB5FA03F
:10404000FFF754FB9FED680A00F0F6F867A0FFF752
:104050004DFB0420207010BD000000205B54415334
:104060004B5D205375636365737320746F206669BD
:104070006E697368204341525F53544154455F5702
:104080004149545F53544152542C20776169742044
:1040900073746172742E2E2E0A0000005B5441531B
:1040A0004B5D205374617274696E67204341525FA7
:1040B00053544154455F4D4F56455F544F5F5152E5
:1040C000434F44450A0000000000C8425B5441537E
:1040D0004B5D205375636365737320746F2066694D
:1040E0006E697368204341525F53544154455F4D9C
:1040F0004F56455F544F5F5152434F44450A0000AD
:104100005B5441534B5D205374617274696E672038
:104110004341525F53544154455F5343414E5F54B2
:1041200041534B0A00000000100000205B54415333
:104130004B5D205375636365737320746F206669EC
:104140006E697368204341525F53544154455F5335
:1041500043414E5F5441534B210A00005B494E4698
:104160004F5D20626F6D625F636F6C6F723A2025E6
:10417000642C207461726765745F636F6C6F723A50
:104180002025642C20686F73746167655F74797093
:10419000653A2025640A00005B5441534B5D20467C
:1041A00061696C20746F204341525F535441544500
:1041B0005F5343414E5F5441534B0A005B5441539C
:1041C0004B5D205374617274696E67204341525F86
:1041D00053544154455F4D4F56455F544F5F4F42D6
:1041E000535441434C450A0000400D445B54415335
:1041F0004B5D205375636365737320746F2066692C
:104200006E697368204341525F53544154455F4D7A
:104210004F56455F544F5F4F42535441434C4521E5
:104220000A00000003480178002901D10121017032
:1042300070470000000000200448012180ED010AC1
:1042400001700021417000F0EDB80000080000206E
:1042500010B5264C207800281CD06078002819D191
:10426000234890ED000A2348D0ED000A30EE200AE2
:10427000F6EE000A20EE200AD4ED010AB4EEE00AC0
:10428000F1EE10FA07DB0021084600F01FF90020CC
:104290002070607010BD9FED181A30EEC11AB4EE98
:1042A000C01AF1EE10FA02DD4FF47A700AE09FEDC9
:1042B000131A30EEC11AB4EEC01AF1EE10FA03DD93
:1042C0004FF4487001460DE0B3EE0E1A70EEC10ACD
:1042D000F4EEC00AF1EE10FA02DD4FF4C870F1E717
:1042E000C8210846BDE8104000F0F0B808000020E2
:1042F0001C000020200000200000C8420000704286
:104300000168486A00224A627047000000EE100A05
:10431000DFED050AB1EE0B1AB8EEC00A60EE200A16
:1043200080EE810A704700007930613E10B50021AF
:104330000C48FDF721FE04210A48FDF71DFE00216F
:104340000948FDF719FE04210748FDF715FE054948
:10435000002009684862044909684862BDE81040C5
:1043600000F060B880000020C80000202DE9F04F68
:104370002DED028B89B02648FFF7C2FF8346254802
:10438000FFF7BEFF82465846FFF7C0FFB0EE408AF7
:104390005046FFF7BBFF204EF0EE408ADFED1F0ACC
:1043A00096ED000A08EE200A86ED000A96ED010A55
:1043B00008EEA00A86ED010A96ED010A10EE100A39
:1043C000FCF796F896ED000A04460D4610EE100A2A
:1043D000FCF78EF806460F4618EE900AFCF788F8B0
:1043E0008046894618EE100AFCF782F80A468DE8E6
:1043F0000503524659460A48CDE90645CDE904670A
:10440000FFF774F909B0BDEC028BBDE8F08F000036
:1044100080000020C80000201C0000200AD7233C98
:10442000E846000804489FED030A80ED000A80ED8D
:10443000010A7047000000001C00002013B54FF671
:10444000FF73012269460248FEF79EFA00981CBDE0
:1044500058010020042802D101490120087070474A
:1044600018000020FDF70EF8FEF72EFDFEF714FBF6
:10447000FEF7DCFAFEF780FCFEF79AFCFEF7B4FCD0
:10448000FEF75EFCFEF750FBFEF7CAFBFEF7FEFBF5
:10449000FEF732FCFEF7C4FCFFF748FF00F03EF8E1
:1044A0000021084600F012F80648FDF701FC064C12
:1044B0000025207810B12570FFF7B4FEFFF78CFDC2
:1044C000F7E70000100100201800002070B5124B23
:1044D000DC6804EBD47204EBD4746410521025B27F
:1044E000904200DB2846564234B2B04200DC2046FF
:1044F000914200DB2946B14200DC21461D681418B8
:104500006C631C68101AA0631C685018E063501A92
:104510001968086470BD00003800002010B5002143
:104520000848FDF7C9FE04210648FDF7C5FE08212D
:104530000448FDF7C1FEBDE810400C210148FDF71D
:10454000BBBE00003800002030B5A9B000240D46E5
:1045500023942494259426942794802928D20A46CB
:10456000014603A8FBF75FFE03A824AA445527A928
:1045700026A88DE8070025AB23AA0EA103A8FBF708
:1045800085FE052814D110A123A8FBF770FE002892
:104590000ED10EA124A8FBF76AFE002808D10C4812
:1045A0002599018026994180279981800121817177
:1045B00029B030BD2533732025642025642025646F
:1045C00020253373000000002366000023650000EF
:1045D0001000002030B5AFB0002426942794289412
:1045E0000D4629942A942B942C942D94802935D20D
:1045F0000A46014606A8FBF716FE06A80DF1080CB0
:10460000445527AB2DAA2CA92BA88CE80F002AA96A
:1046100029A8CDE9000128AB26AA11A106A8FBF71D
:1046200035FE08281AD115A126A8FBF720FE002880
:1046300014D113A127A8FBF71AFE00280ED11148A8
:1046400028990180299941802A9981802B99C180DC
:104650002C9901812D994181012101732FB030BD29
:1046600025337320256420256420256420256420BB
:104670002564202564202533730000002373000087
:1046800023650000F803002000061016000610162F
:1046900000000000000000000102030406070809F2
:1046A0000000000001020304DDDDDDDDDCBBBBDD5D
:1046B000DDDDDDDDDDDDDDDD9888888888888888C2
:1046C00077777777778888888555555666666666E2
:1046D00066666666666888888333333222222222C1
:1046E000222222222228888D70756C73655F6C658A
:1046F00066743A2025642C2070756C73655F72694E
:104700006768743A2025642C2073706565645F6C5B
:104710006566743A20252E32662C207370656564B8
:104720005F72696768743A20252E32662C20746F98
:1047300074616C5F6C6566745F64697374616E63E9
:10474000653A20252E32662C20746F74616C5F727E
:10475000696768745F64697374616E63653A202584
:104760002E32660A00000000884700080000002082
:10477000380000002C370008C0470008380000202F
:10478000D00800003C3700080000000000000000D6
:104790000000000000000000000000000000000019
:1047A0000000000000000000000000000100000008
:1047B00010000000000000000024F40000000000D1
:040000050800018965
:00000001FF
